{
  "_format": "hh-sol-artifact-1",
  "contractName": "ICO_Contract",
  "sourceName": "contracts/ICO_Contract.sol",
  "abi": [
    {
      "inputs": [
        {
          "internalType": "uint256",
          "name": "_rate",
          "type": "uint256"
        },
        {
          "internalType": "address",
          "name": "_wallet",
          "type": "address"
        },
        {
          "internalType": "contract ERC20",
          "name": "_token",
          "type": "address"
        },
        {
          "internalType": "uint256",
          "name": "_openingTime",
          "type": "uint256"
        },
        {
          "internalType": "uint256",
          "name": "_closingTime",
          "type": "uint256"
        }
      ],
      "stateMutability": "nonpayable",
      "type": "constructor"
    },
    {
      "anonymous": false,
      "inputs": [
        {
          "indexed": true,
          "internalType": "address",
          "name": "purchaser",
          "type": "address"
        },
        {
          "indexed": true,
          "internalType": "address",
          "name": "investor",
          "type": "address"
        },
        {
          "indexed": false,
          "internalType": "uint256",
          "name": "value",
          "type": "uint256"
        },
        {
          "indexed": false,
          "internalType": "uint256",
          "name": "amount",
          "type": "uint256"
        },
        {
          "indexed": false,
          "internalType": "uint256",
          "name": "weiRaised",
          "type": "uint256"
        }
      ],
      "name": "TokenPurchase",
      "type": "event"
    },
    {
      "inputs": [
        {
          "internalType": "address",
          "name": "_investor",
          "type": "address"
        }
      ],
      "name": "buyTokens",
      "outputs": [],
      "stateMutability": "payable",
      "type": "function"
    },
    {
      "inputs": [],
      "name": "cap",
      "outputs": [
        {
          "internalType": "uint256",
          "name": "",
          "type": "uint256"
        }
      ],
      "stateMutability": "view",
      "type": "function"
    },
    {
      "inputs": [],
      "name": "closingTime",
      "outputs": [
        {
          "internalType": "uint256",
          "name": "",
          "type": "uint256"
        }
      ],
      "stateMutability": "view",
      "type": "function"
    },
    {
      "inputs": [
        {
          "internalType": "address",
          "name": "",
          "type": "address"
        }
      ],
      "name": "contributions",
      "outputs": [
        {
          "internalType": "uint256",
          "name": "",
          "type": "uint256"
        }
      ],
      "stateMutability": "view",
      "type": "function"
    },
    {
      "inputs": [],
      "name": "hasClosed",
      "outputs": [
        {
          "internalType": "bool",
          "name": "",
          "type": "bool"
        }
      ],
      "stateMutability": "view",
      "type": "function"
    },
    {
      "inputs": [],
      "name": "openingTime",
      "outputs": [
        {
          "internalType": "uint256",
          "name": "",
          "type": "uint256"
        }
      ],
      "stateMutability": "view",
      "type": "function"
    },
    {
      "inputs": [],
      "name": "rate",
      "outputs": [
        {
          "internalType": "uint256",
          "name": "",
          "type": "uint256"
        }
      ],
      "stateMutability": "view",
      "type": "function"
    },
    {
      "inputs": [],
      "name": "token",
      "outputs": [
        {
          "internalType": "contract ERC20",
          "name": "",
          "type": "address"
        }
      ],
      "stateMutability": "view",
      "type": "function"
    },
    {
      "inputs": [],
      "name": "wallet",
      "outputs": [
        {
          "internalType": "address",
          "name": "",
          "type": "address"
        }
      ],
      "stateMutability": "view",
      "type": "function"
    },
    {
      "inputs": [],
      "name": "weiRaised",
      "outputs": [
        {
          "internalType": "uint256",
          "name": "",
          "type": "uint256"
        }
      ],
      "stateMutability": "view",
      "type": "function"
    },
    {
      "stateMutability": "payable",
      "type": "receive"
    }
  ],
  "bytecode": "0x60806040523480156200001157600080fd5b506040516200118538038062001185833981810160405281019062000037919062000274565b600085116200007d576040517f08c379a000000000000000000000000000000000000000000000000000000000815260040162000074906200044a565b60405180910390fd5b600073ffffffffffffffffffffffffffffffffffffffff168473ffffffffffffffffffffffffffffffffffffffff161415620000f0576040517f08c379a0000000000000000000000000000000000000000000000000000000008152600401620000e790620004b0565b60405180910390fd5b4282101562000136576040517f08c379a00000000000000000000000000000000000000000000000000000000081526004016200012d906200046c565b60405180910390fd5b818110156200017c576040517f08c379a000000000000000000000000000000000000000000000000000000000815260040162000173906200048e565b60405180910390fd5b6a52b7d2dcc80cd2e400000060068190555081600481905550806005819055508460028190555083600160006101000a81548173ffffffffffffffffffffffffffffffffffffffff021916908373ffffffffffffffffffffffffffffffffffffffff160217905550826000806101000a81548173ffffffffffffffffffffffffffffffffffffffff021916908373ffffffffffffffffffffffffffffffffffffffff160217905550505050505062000583565b600081519050620002408162000535565b92915050565b60008151905062000257816200054f565b92915050565b6000815190506200026e8162000569565b92915050565b600080600080600060a086880312156200028d57600080fd5b60006200029d888289016200025d565b9550506020620002b0888289016200022f565b9450506040620002c38882890162000246565b9350506060620002d6888289016200025d565b9250506080620002e9888289016200025d565b9150509295509295909350565b600062000305601683620004d2565b91507f52617465206973206c657373207468616e207a65726f000000000000000000006000830152602082019050919050565b600062000347602383620004d2565b91507f4f70656e2054696d65206973206c657373207468616e2063757272656e74207460008301527f696d6500000000000000000000000000000000000000000000000000000000006020830152604082019050919050565b6000620003af602383620004d2565b91507f436c6f73696e672054696d65206973206c657373207468616e204f70656e207460008301527f696d6500000000000000000000000000000000000000000000000000000000006020830152604082019050919050565b600062000417601783620004d2565b91507f57616c6c657420486173205a65726f20416464726573730000000000000000006000830152602082019050919050565b600060208201905081810360008301526200046581620002f6565b9050919050565b60006020820190508181036000830152620004878162000338565b9050919050565b60006020820190508181036000830152620004a981620003a0565b9050919050565b60006020820190508181036000830152620004cb8162000408565b9050919050565b600082825260208201905092915050565b6000620004f0826200050b565b9050919050565b60006200050482620004e3565b9050919050565b600073ffffffffffffffffffffffffffffffffffffffff82169050919050565b6000819050919050565b6200054081620004e3565b81146200054c57600080fd5b50565b6200055a81620004f7565b81146200056657600080fd5b50565b62000574816200052b565b81146200058057600080fd5b50565b610bf280620005936000396000f3fe6080604052600436106100955760003560e01c80634b6753bc116100595780634b6753bc1461018a578063521eb273146101b5578063b7a8807c146101e0578063ec8ac4d81461020b578063fc0c546a146102275761009c565b80631515bc2b146100a15780632c4e722e146100cc578063355274ea146100f75780634042b66f1461012257806342e94c901461014d5761009c565b3661009c57005b600080fd5b3480156100ad57600080fd5b506100b6610252565b6040516100c3919061090a565b60405180910390f35b3480156100d857600080fd5b506100e161025e565b6040516100ee91906109e0565b60405180910390f35b34801561010357600080fd5b5061010c610264565b60405161011991906109e0565b60405180910390f35b34801561012e57600080fd5b5061013761026a565b60405161014491906109e0565b60405180910390f35b34801561015957600080fd5b50610174600480360381019061016f91906106f8565b610270565b60405161018191906109e0565b60405180910390f35b34801561019657600080fd5b5061019f610288565b6040516101ac91906109e0565b60405180910390f35b3480156101c157600080fd5b506101ca61028e565b6040516101d791906108c6565b60405180910390f35b3480156101ec57600080fd5b506101f56102b4565b60405161020291906109e0565b60405180910390f35b610225600480360381019061022091906106f8565b6102ba565b005b34801561023357600080fd5b5061023c6105ad565b6040516102499190610925565b60405180910390f35b60006005544211905090565b60025481565b60065481565b60035481565b60076020528060005260406000206000915090505481565b60055481565b600160009054906101000a900473ffffffffffffffffffffffffffffffffffffffff1681565b60045481565b6004544210156102ff576040517f08c379a00000000000000000000000000000000000000000000000000000000081526004016102f690610940565b60405180910390fd5b600554421115610344576040517f08c379a000000000000000000000000000000000000000000000000000000000815260040161033b906109a0565b60405180910390fd5b6000349050600073ffffffffffffffffffffffffffffffffffffffff168273ffffffffffffffffffffffffffffffffffffffff1614156103b9576040517f08c379a00000000000000000000000000000000000000000000000000000000081526004016103b090610980565b60405180910390fd5b60008114156103fd576040517f08c379a00000000000000000000000000000000000000000000000000000000081526004016103f490610960565b60405180910390fd5b600654610415826003546105d190919063ffffffff16565b1115610456576040517f08c379a000000000000000000000000000000000000000000000000000000000815260040161044d906109c0565b60405180910390fd5b6000610461826105e7565b9050610478826003546105d190919063ffffffff16565b60038190555060008054906101000a900473ffffffffffffffffffffffffffffffffffffffff1673ffffffffffffffffffffffffffffffffffffffff1663a9059cbb84836040518363ffffffff1660e01b81526004016104d99291906108e1565b602060405180830381600087803b1580156104f357600080fd5b505af1158015610507573d6000803e3d6000fd5b505050506040513d601f19601f8201168201806040525081019061052b9190610721565b508273ffffffffffffffffffffffffffffffffffffffff163373ffffffffffffffffffffffffffffffffffffffff167efe0e12b43090c1fc19a34aefa5cc138a4eeafc60ab800f855c730b3fb9480e848460035460405161058e939291906109fb565b60405180910390a36105a08383610605565b6105a861064d565b505050565b60008054906101000a900473ffffffffffffffffffffffffffffffffffffffff1681565b600081836105df9190610a43565b905092915050565b60006105fe600254836106b890919063ffffffff16565b9050919050565b80600760008473ffffffffffffffffffffffffffffffffffffffff1673ffffffffffffffffffffffffffffffffffffffff168152602001908152602001600020819055505050565b600160009054906101000a900473ffffffffffffffffffffffffffffffffffffffff1673ffffffffffffffffffffffffffffffffffffffff166108fc349081150290604051600060405180830381858888f193505050501580156106b5573d6000803e3d6000fd5b50565b600081836106c69190610a99565b905092915050565b6000813590506106dd81610b8e565b92915050565b6000815190506106f281610ba5565b92915050565b60006020828403121561070a57600080fd5b6000610718848285016106ce565b91505092915050565b60006020828403121561073357600080fd5b6000610741848285016106e3565b91505092915050565b61075381610af3565b82525050565b61076281610b05565b82525050565b61077181610b3b565b82525050565b6000610784601183610a32565b91507f49742773204e6f74204f70656e205965740000000000000000000000000000006000830152602082019050919050565b60006107c4600e83610a32565b91507f416d6f756e74206973205a65726f0000000000000000000000000000000000006000830152602082019050919050565b6000610804601c83610a32565b91507f42656e656669636961727920686173207a65726f2061646472657373000000006000830152602082019050919050565b6000610844600f83610a32565b91507f4974277320436c6f736564204e6f7700000000000000000000000000000000006000830152602082019050919050565b6000610884601583610a32565b91507f57656920526169736564204861732065786365656400000000000000000000006000830152602082019050919050565b6108c081610b31565b82525050565b60006020820190506108db600083018461074a565b92915050565b60006040820190506108f6600083018561074a565b61090360208301846108b7565b9392505050565b600060208201905061091f6000830184610759565b92915050565b600060208201905061093a6000830184610768565b92915050565b6000602082019050818103600083015261095981610777565b9050919050565b60006020820190508181036000830152610979816107b7565b9050919050565b60006020820190508181036000830152610999816107f7565b9050919050565b600060208201905081810360008301526109b981610837565b9050919050565b600060208201905081810360008301526109d981610877565b9050919050565b60006020820190506109f560008301846108b7565b92915050565b6000606082019050610a1060008301866108b7565b610a1d60208301856108b7565b610a2a60408301846108b7565b949350505050565b600082825260208201905092915050565b6000610a4e82610b31565b9150610a5983610b31565b9250827fffffffffffffffffffffffffffffffffffffffffffffffffffffffffffffffff03821115610a8e57610a8d610b5f565b5b828201905092915050565b6000610aa482610b31565b9150610aaf83610b31565b9250817fffffffffffffffffffffffffffffffffffffffffffffffffffffffffffffffff0483118215151615610ae857610ae7610b5f565b5b828202905092915050565b6000610afe82610b11565b9050919050565b60008115159050919050565b600073ffffffffffffffffffffffffffffffffffffffff82169050919050565b6000819050919050565b6000610b4682610b4d565b9050919050565b6000610b5882610b11565b9050919050565b7f4e487b7100000000000000000000000000000000000000000000000000000000600052601160045260246000fd5b610b9781610af3565b8114610ba257600080fd5b50565b610bae81610b05565b8114610bb957600080fd5b5056fea2646970667358221220f59d79cb619d797bec8fbd885ec04e4d51f9b6bd613b26e833e447dc0fd3f83b64736f6c63430008000033",
  "linkReferences": {},
  "deployedLinkReferences": {}
}